{
  "_format": "hh-sol-artifact-1",
  "contractName": "TweetPortal",
  "sourceName": "contracts/TweetPortal.sol",
  "abi": [
    {
      "inputs": [],
      "stateMutability": "payable",
      "type": "constructor"
    },
    {
      "anonymous": false,
      "inputs": [
        {
          "indexed": true,
          "internalType": "address",
          "name": "from",
          "type": "address"
        },
        {
          "indexed": false,
          "internalType": "uint256",
          "name": "timestamp",
          "type": "uint256"
        },
        {
          "indexed": false,
          "internalType": "string",
          "name": "message",
          "type": "string"
        }
      ],
      "name": "NewTweet",
      "type": "event"
    },
    {
      "inputs": [],
      "name": "getAllTweets",
      "outputs": [
        {
          "components": [
            {
              "internalType": "address",
              "name": "tweeter",
              "type": "address"
            },
            {
              "internalType": "string",
              "name": "message",
              "type": "string"
            },
            {
              "internalType": "uint256",
              "name": "timestamp",
              "type": "uint256"
            }
          ],
          "internalType": "struct TweetPortal.Tweet[]",
          "name": "",
          "type": "tuple[]"
        }
      ],
      "stateMutability": "view",
      "type": "function"
    },
    {
      "inputs": [],
      "name": "getTotalTweets",
      "outputs": [
        {
          "internalType": "uint256",
          "name": "",
          "type": "uint256"
        }
      ],
      "stateMutability": "view",
      "type": "function"
    },
    {
      "inputs": [
        {
          "internalType": "string",
          "name": "_message",
          "type": "string"
        }
      ],
      "name": "tweet",
      "outputs": [],
      "stateMutability": "nonpayable",
      "type": "function"
    }
  ],
  "bytecode": "0x60806040526200004f6040518060400160405280601881526020017f496d206120737570657220736d616c6c207477656574657200000000000000008152506200005560201b620004ec1760201c565b620001e9565b620000f5816040516024016200006c919062000162565b6040516020818303038152906040527f41304fac000000000000000000000000000000000000000000000000000000007bffffffffffffffffffffffffffffffffffffffffffffffffffffffff19166020820180517bffffffffffffffffffffffffffffffffffffffffffffffffffffffff8381831617835250505050620000f860201b60201c565b50565b60008151905060006a636f6e736f6c652e6c6f679050602083016000808483855afa5050505050565b60006200012e8262000186565b6200013a818562000191565b93506200014c818560208601620001a2565b6200015781620001d8565b840191505092915050565b600060208201905081810360008301526200017e818462000121565b905092915050565b600081519050919050565b600082825260208201905092915050565b60005b83811015620001c2578082015181840152602081019050620001a5565b83811115620001d2576000848401525b50505050565b6000601f19601f8301169050919050565b610fbd80620001f96000396000f3fe608060405234801561001057600080fd5b50600436106100415760003560e01c8063532561351461004657806393f11c2714610064578063fb46d4c514610082575b600080fd5b61004e61009e565b60405161005b9190610ad6565b60405180910390f35b61006c6101ef565b6040516100799190610bff565b60405180910390f35b61009c60048036038101906100979190610890565b61023a565b005b60606001805480602002602001604051908101604052809291908181526020016000905b828210156101e657838290600052602060002090600302016040518060600160405290816000820160009054906101000a900473ffffffffffffffffffffffffffffffffffffffff1673ffffffffffffffffffffffffffffffffffffffff1673ffffffffffffffffffffffffffffffffffffffff16815260200160018201805461014b90610de5565b80601f016020809104026020016040519081016040528092919081815260200182805461017790610de5565b80156101c45780601f10610199576101008083540402835291602001916101c4565b820191906000526020600020905b8154815290600101906020018083116101a757829003601f168201915b50505050508152602001600282015481525050815260200190600101906100c2565b50505050905090565b60006102326040518060400160405280601981526020017f5765206861766520256420746f74616c20747765657473212000000000000000815250600054610585565b600054905090565b61027a6040518060400160405280601881526020017f2573207477656574656420772f206d65737361676520257300000000000000008152503383610621565b6102b96040518060400160405280601081526020017f2573206861732074776565746564212000000000000000000000000000000000815250336106c0565b600160405180606001604052803373ffffffffffffffffffffffffffffffffffffffff16815260200183815260200142815250908060018154018082558091505060019003906000526020600020906003020160009091909190915060008201518160000160006101000a81548173ffffffffffffffffffffffffffffffffffffffff021916908373ffffffffffffffffffffffffffffffffffffffff1602179055506020820151816001019080519060200190610378929190610785565b506040820151816002015550503373ffffffffffffffffffffffffffffffffffffffff167f247b19649778c81aad1923b4b49025b7eed6f664d6a4e802190bfb35724f95a942836040516103cd929190610c1a565b60405180910390a2600064e8d4a51000905047811115610422576040517f08c379a000000000000000000000000000000000000000000000000000000000815260040161041990610bbf565b60405180910390fd5b60003373ffffffffffffffffffffffffffffffffffffffff168260405161044890610ac1565b60006040518083038185875af1925050503d8060008114610485576040519150601f19603f3d011682016040523d82523d6000602084013e61048a565b606091505b50509050806104ce576040517f08c379a00000000000000000000000000000000000000000000000000000000081526004016104c590610bdf565b60405180910390fd5b60016000808282546104e09190610d11565b92505081905550505050565b610582816040516024016105009190610af8565b6040516020818303038152906040527f41304fac000000000000000000000000000000000000000000000000000000007bffffffffffffffffffffffffffffffffffffffffffffffffffffffff19166020820180517bffffffffffffffffffffffffffffffffffffffffffffffffffffffff838183161783525050505061075c565b50565b61061d828260405160240161059b929190610b8f565b6040516020818303038152906040527f9710a9d0000000000000000000000000000000000000000000000000000000007bffffffffffffffffffffffffffffffffffffffffffffffffffffffff19166020820180517bffffffffffffffffffffffffffffffffffffffffffffffffffffffff838183161783525050505061075c565b5050565b6106bb83838360405160240161063993929190610b4a565b6040516020818303038152906040527fe0e9ad4f000000000000000000000000000000000000000000000000000000007bffffffffffffffffffffffffffffffffffffffffffffffffffffffff19166020820180517bffffffffffffffffffffffffffffffffffffffffffffffffffffffff838183161783525050505061075c565b505050565b61075882826040516024016106d6929190610b1a565b6040516020818303038152906040527f319af333000000000000000000000000000000000000000000000000000000007bffffffffffffffffffffffffffffffffffffffffffffffffffffffff19166020820180517bffffffffffffffffffffffffffffffffffffffffffffffffffffffff838183161783525050505061075c565b5050565b60008151905060006a636f6e736f6c652e6c6f679050602083016000808483855afa5050505050565b82805461079190610de5565b90600052602060002090601f0160209004810192826107b357600085556107fa565b82601f106107cc57805160ff19168380011785556107fa565b828001600101855582156107fa579182015b828111156107f95782518255916020019190600101906107de565b5b509050610807919061080b565b5090565b5b8082111561082457600081600090555060010161080c565b5090565b600061083b61083684610c6f565b610c4a565b90508281526020810184848401111561085357600080fd5b61085e848285610da3565b509392505050565b600082601f83011261087757600080fd5b8135610887848260208601610828565b91505092915050565b6000602082840312156108a257600080fd5b600082013567ffffffffffffffff8111156108bc57600080fd5b6108c884828501610866565b91505092915050565b60006108dd8383610a53565b905092915050565b6108ee81610d67565b82525050565b6108fd81610d67565b82525050565b600061090e82610cb0565b6109188185610cd3565b93508360208202850161092a85610ca0565b8060005b85811015610966578484038952815161094785826108d1565b945061095283610cc6565b925060208a0199505060018101905061092e565b50829750879550505050505092915050565b600061098382610cbb565b61098d8185610cef565b935061099d818560208601610db2565b6109a681610ed5565b840191505092915050565b60006109bc82610cbb565b6109c68185610d00565b93506109d6818560208601610db2565b6109df81610ed5565b840191505092915050565b60006109f7603483610d00565b9150610a0282610ee6565b604082019050919050565b6000610a1a602783610d00565b9150610a2582610f35565b604082019050919050565b6000610a3d600083610ce4565b9150610a4882610f84565b600082019050919050565b6000606083016000830151610a6b60008601826108e5565b5060208301518482036020860152610a838282610978565b9150506040830151610a986040860182610aa3565b508091505092915050565b610aac81610d99565b82525050565b610abb81610d99565b82525050565b6000610acc82610a30565b9150819050919050565b60006020820190508181036000830152610af08184610903565b905092915050565b60006020820190508181036000830152610b1281846109b1565b905092915050565b60006040820190508181036000830152610b3481856109b1565b9050610b4360208301846108f4565b9392505050565b60006060820190508181036000830152610b6481866109b1565b9050610b7360208301856108f4565b8181036040830152610b8581846109b1565b9050949350505050565b60006040820190508181036000830152610ba981856109b1565b9050610bb86020830184610ab2565b9392505050565b60006020820190508181036000830152610bd8816109ea565b9050919050565b60006020820190508181036000830152610bf881610a0d565b9050919050565b6000602082019050610c146000830184610ab2565b92915050565b6000604082019050610c2f6000830185610ab2565b8181036020830152610c4181846109b1565b90509392505050565b6000610c54610c65565b9050610c608282610e17565b919050565b6000604051905090565b600067ffffffffffffffff821115610c8a57610c89610ea6565b5b610c9382610ed5565b9050602081019050919050565b6000819050602082019050919050565b600081519050919050565b600081519050919050565b6000602082019050919050565b600082825260208201905092915050565b600081905092915050565b600082825260208201905092915050565b600082825260208201905092915050565b6000610d1c82610d99565b9150610d2783610d99565b9250827fffffffffffffffffffffffffffffffffffffffffffffffffffffffffffffffff03821115610d5c57610d5b610e48565b5b828201905092915050565b6000610d7282610d79565b9050919050565b600073ffffffffffffffffffffffffffffffffffffffff82169050919050565b6000819050919050565b82818337600083830152505050565b60005b83811015610dd0578082015181840152602081019050610db5565b83811115610ddf576000848401525b50505050565b60006002820490506001821680610dfd57607f821691505b60208210811415610e1157610e10610e77565b5b50919050565b610e2082610ed5565b810181811067ffffffffffffffff82111715610e3f57610e3e610ea6565b5b80604052505050565b7f4e487b7100000000000000000000000000000000000000000000000000000000600052601160045260246000fd5b7f4e487b7100000000000000000000000000000000000000000000000000000000600052602260045260246000fd5b7f4e487b7100000000000000000000000000000000000000000000000000000000600052604160045260246000fd5b6000601f19601f8301169050919050565b7f547279696e6720746f207769746864726177206d6f7265206d6f6e657920746860008201527f616e2074686520636f6e7472616374206861732e000000000000000000000000602082015250565b7f4661696c656420746f207769746864726177206d6f6e65792066726f6d20636f60008201527f6e74726163742e00000000000000000000000000000000000000000000000000602082015250565b5056fea264697066735822122075690b5adc5bfd90234d054969fb468d370396f53925f8e9d2b0d23bceaa54cf64736f6c63430008040033",
  "linkReferences": {},
  "deployedLinkReferences": {}
}